:020000040800F2
:10000000A80E00202D02000831020008330200086B
:10001000350200083702000839020008000000001D
:100020000000000000000000000000003B0200088B
:100030003D020008000000003F02000841020008E5
:10004000430200084302000843020008430200087C
:10005000430200084302000843020008430200086C
:10006000430200084302000843020008430200085C
:10007000430200084302000843020008430200084C
:10008000430200084302000843020008430200083C
:10009000430200084302000843020008430200082C
:1000A000430200084302000843020008430200081C
:1000B000690E000843020008A10E00084302000870
:1000C00043020008430200084302000843020008FC
:1000D000430200081D0F0008A10F0008430200089A
:1000E00043020008430200084302000843020008DC
:1000F00043020008430200084302000843020008CC
:1001000043020008430200084302000843020008BB
:1001100043020008430200084302000843020008AB
:10012000430200084302000843020008430200089B
:1001300000F002F800F06BF80AA090E8000C82448E
:100140008344AAF10107DA4501D100F060F8AFF26B
:10015000090EBAE80F0013F0010F18BFFB1A43F0A5
:100160000103184758210000782100000A444FF08D
:10017000000C10F8013B13F0070408BF10F8014B06
:100180001D1108BF10F8015B641E05D010F8016B4B
:10019000641E01F8016BF9D113F0080F1EBF10F8AF
:1001A000014BAD1C0C1B09D16D1E58BF01F801CBD2
:1001B000FAD505E014F8016B01F8016B6D1EF9D555
:1001C0009142D6D37047000000230024002500266A
:1001D000103A28BF78C1FBD8520728BF30C148BFAA
:1001E0000B607047642900F09B80752900F09880AF
:1001F000782900F0FC80632900F06E82732900F0FA
:100200007382002070471FB51FBD10B510BD00F0F0
:1002100089FA1146FFF7F7FF00F030FF00F0A7FA68
:1002200003B4FFF7F2FF03BC00F0F9FE08480047F3
:10023000FEE7FEE7FEE7FEE7FEE7FEE7FEE7FEE796
:10024000FEE7FEE703480449044A054B70470000F7
:1002500031010008A8080020A80E0020A80A0020EC
:10026000A80A0020704700000FB4044910B503AA83
:10027000029800F03DFA10BC5DF814FB0400002069
:1002800070B5044685690068C10601D5302600E0D6
:100290002026C00707D070BDD4E901213046904721
:1002A000206A401C20626D1EF6D570BD70B50446F4
:1002B00085690078C00707D170BDD4E901212020ED
:1002C0009047206A401C20626D1EF6D570BD70B547
:1002D0000C460546012A05D02878800600D5EA6933
:1002E000002302E0012305E05B1C934202D2E05CA4
:1002F0000028F9D1A869E618C01AA861286A18442C
:1003000028622846FFF7BCFF04E0D5E9012114F874
:10031000010B9047B442F8D32846FFF7C7FF70BDE2
:100320002DE9F0410646002410687529314616A5CE
:1003300010D0AFF30080002802DA404213A507E096
:1003400031688A0701D512A502E0490704D511A535
:10035000012401E0AFF3008000210A2206F1240706
:1003600009E0B0FBF2FCB0FBF2F302FB1C00303002
:1003700078541846491C0028F3D123462A463046B3
:10038000BDE8F04100F02CB9000000002D00000095
:100390002B00000020000000F0B40D460188090584
:1003A00002D5214C7C4402E01F4C7C440E340021D9
:1003B00000F1240608E002F00F071209E75D42EAA7
:1003C00003721B097754491C52EA0307F3D10278E0
:1003D0000023120704D5702D06D009B10223113471
:1003E0002246F0BC00F0FCB801231034F8E770B5E9
:1003F00004460D4621461068AFF3008002462946A8
:100400002046BDE870400023C6E7D21D22F0070356
:10041000D3E90023C0E70368126843F020030360B8
:100420000823C3610023B7E7C41D00002DE9F05F76
:10043000894604464FF0000ADFF874B1FB44C0F867
:1004400020A02046E1688847002874D0252806D0DF
:10045000D4E901219047206A401C2062F1E7002680
:100460005F462046E16888472028054607DB312D96
:1004700005D2781910F8200C08B10643F1E7B0074F
:1004800001D526F00406C4F81CA00027C4F818A063
:100490002A2D09D0284600F0BBFD38B304EB8708AD
:1004A000303DC8F8185019E059F8041B204604EBF9
:1004B00087029161E1688847012F054618D1E069FC
:1004C000002820DA26F020061DE0D8F8180000EBFE
:1004D000800005EB40003038C8F818002046E1687D
:1004E0008847054600F094FD0028EED1012F0AD080
:1004F0002E2D08D12046E16888477F1C0546022F33
:1005000046F02006C4DBA069002803DA404246F02A
:100510000106A061F00701D026F010066C2D0BD06B
:10052000682D09D04C2D39D06A2D35D0742D35D099
:100530007A2D33D016E038E0E1682F462046884710
:10054000B842054609D16C2F26D04FF48060E1688F
:10055000064320468847054604E06C2F1AD04FF426
:10056000807006430DB3A5F14100192802D820354B
:1005700046F400664A462946204626604E46FFF766
:1005800031FE80B101280BD0F61D26F0070000F1E6
:10059000080956E74020E4E78020D8E70020D6E7A6
:1005A00006F104094DE7284652E7206ABDE8F09FAE
:1005B000541D000030B505460B462A4613F8014B82
:1005C00012F8010B08B1A042F8D01CB1002802D0EB
:1005D0006D1CF1E7284630BD704770477047704783
:1005E0002DE9F0470D4699469246044600F124084D
:1005F0000168880604D5E06921F01001216000E05F
:100600000120A84201DD471B00E00027A1697A19FB
:1006100002EB0900081AA0612078C00602D4204627
:10062000FFF72EFE002608E0D4E901211AF80600A3
:100630009047206A401C761C20624E45F4DB2078EF
:10064000C0060AD52046FFF71BFE06E0D4E90121CB
:1006500030209047206A401C2062381EA7F1010715
:10066000F4DC07E0D4E9012118F805009047206A7E
:10067000401C2062281EA5F10105F3DC2046FFF78F
:1006800015FE2078000602D50220BDE8F087012083
:10069000FBE7000001694A1C02610878704700B559
:1006A0008FB0CDE901310021059105497944CDE9AB
:1006B000031011466846FFF7B9FE0FB000BD0000F9
:1006C000E5FFFFFF10B5436913B1AFF3008001E010
:1006D000FFF7FDFD012010BD127800F124010A7022
:1006E00000224A700122EDE711684FF0FF32E9E77E
:1006F000074B70B50D467B44FFF7D1FF04462846F3
:1007000000F008F810B14FF0FF3070BD204670BD0A
:1007100067090000007B00F08000704700487047C8
:10072000480800207546FFF7F9FFAE460500694608
:10073000534620F00700854618B020B5FFF782FD2C
:10074000BDE820404FF000064FF000074FF00008D2
:100750004FF0000B21F00701AC46ACE8C009ACE853
:10076000C009ACE8C009ACE8C0098D467047044632
:10077000AFF300802046FFF753FD0000014621291A
:100780003ED2DFE801F011131517191B1D1F21239D
:1007900025273D3D3D3D292B3D3D3D2D3D3D2F3107
:1007A0003335373D3D393B0017A02BE017A029E03A
:1007B0001AA027E01EA025E022A023E029A021E026
:1007C00030A01FE036A01DE043A01BE045A019E0CB
:1007D00048A017E04BA000BF53A013E056A011E0C3
:1007E00059A00FE061A00DE064A00BE066A009E055
:1007F00069A007E06DA005E071A003E073A001E02F
:1008000075A000BF00BF70474F4B0000CAFDBEDDA2
:10081000B0FCBDD3CAD5B4EDCEF30000B4ABB8D0B4
:10082000C6F7C9CFC3BBD3D0CAD6D6B80000000024
:10083000C2BCC8EBD6B8CEC6CDBCCFF1CAA7B0DC1F
:1008400000000000D6B8CEC6CDBCCFF1CCABB8C945
:10085000A1A2CCABB5ADB6F8C9FAB2BBB3C9CCD87E
:10086000D5F70000D6B8CEC6CDBCCFF1CCABCAAA66
:10087000A1A2CCABBAFDB6F8C9FAB2BBB3C9CCD809
:10088000D5F70000D6B8CEC6CDBCCFF1CCABC2D226
:10089000B6F8C9FAB2BBB3C9CCD8D5F7000000008E
:1008A000D6B8CEC6CDBCCFF1D5FDB3A3A3ACB5AB06
:1008B000CCD8D5F7B5E3CCABC9D9A3A8BBF2C3E676
:1008C000BBFDCCABD0A1A3A9B6F8C9FAB2BBB3C9E2
:1008D000CCD8D5F700000000D6B8CEC6B2BBC6A5AE
:1008E000C5E40000C3BBCBD1CBF7B5BDD6B8CEC6EF
:1008F00000000000CCD8D5F7BACFB2A2CAA7B0DCAE
:1009000000000000B7C3CECAD6B8CEC6BFE2CAB197
:10091000B5D8D6B7D0F2BAC5B3ACB3F6D6B8CEC652
:10092000BFE2B7B6CEA70000C9BEB3FDC4A3B0E511
:10093000CAA7B0DC00000000C7E5BFD5D6B8CEC658
:10094000BFE2CAA7B0DC0000BBBAB3E5C7F8C4DA9F
:10095000C3BBD3D0D3D0D0A7D4ADCABCCDBCB6F81E
:10096000C9FAB2BBB3C9CDBCCFF10000B6C1D0B497
:1009700020464C41534820B3F6B4ED00CEB4B6A89F
:10098000D2E5B4EDCEF30000CEDED0A7BCC4B4E611
:10099000C6F7BAC500000000BCC4B4E6C6F7C9E893
:1009A000B6A8C4DAC8DDB4EDCEF30000BCC7CAC235
:1009B000B1BED2B3C2EBD6B8B6A8B4EDCEF3000048
:1009C000D6B8CEC6BFE2C2FA00000000B5D8D6B78E
:1009D000B4EDCEF300000000C4A3BFE9B7B5BBD8A7
:1009E000C8B7C8CFC2EBD3D0CEF300007CB5054664
:1009F000EF208DF8000001208DF801001A480068F2
:100A0000000E8DF8020018480068000C8DF80300F5
:100A100015480088000A8DF80400134800788DF806
:100A2000050007208DF8060000208DF807000F490B
:100A3000088012E0012000F0F5FA0C48008800F46C
:100A4000004050B100200949088069460848FFF776
:100A5000B1FD04460CB120467CBD681E80B2050085
:100A6000E8D100BFF8E700000C0000200A000020D9
:100A70000802002000BF0549098801F04001002953
:100A8000F9D00249091D0880704700000044004069
:100A90002DE9F0410746884614461D46284600F0D9
:100AA00033F8C5F1040007FA00F60F20284100EAE8
:100AB0000800064306F00F06E21704EBD26252115B
:100AC000920002F1E022D2F800212146E31704EB64
:100AD000D3635B11A4EB431C012303FA0CF31A4309
:100AE0002046E31704EBD3635B119B0003F1E02383
:100AF000C3F800210348005D40EA0610014908558B
:100B0000BDE8F08100E400E00146072323EA01028A
:100B10001202054B18684FF6FF031840034B1843A9
:100B20001043014B186070470CED00E00000FA051F
:100B30002DE9F041054600F07EF900F053F901205F
:100B400000F073F9032000F07EF90F2000F085F922
:100B50001327384600F060F94FF47A70FFF746FF2C
:100B60000446BCB1667AE07BA17B00EB01202880C3
:100B7000607CA870A07C0006E17C00EB0140217D38
:100B800000EB0120617D08446860E07D2872607E92
:100B9000687200E0FF26A6B929880FA0FFF764FB62
:100BA000A97813A0FFF760FB15A06968FFF75CFB4D
:100BB000687A4FF4165200FB02F114A0FFF754FBC1
:100BC00007E03046FFF7DAFD8046414612A0FFF706
:100BD0004BFB3046BDE8F0810D0AC4A3BFE9D7EE58
:100BE000B4F3D6B8CEC6C8DDC1BF3D256400000051
:100BF0000D0AB6D4B1C8B5C8BCB63D256400000026
:100C00000D0AB5D8D6B73D25780000000D0AB2A868
:100C1000CCD8C2CA3D2564000D0A2573000000002F
:100C20002DE9F041044600F006F900F0DBF8012060
:100C300000F0FBF8072000F006F9152000F00DF990
:100C4000200EFFF717FFC4F30740FFF713FFC4F3AD
:100C50000720FFF70FFFE0B2FFF70CFF1D2000EBAE
:100C60001460C4F307410844C4F307210844E1B207
:100C70004718384600F0D0F80E4804604FF4FA6088
:100C8000FFF7B4FE06460EB1757A00E0FF2509486D
:100C900004601DB908A0FFF7E7FA07E02846FFF750
:100CA0006DFD8046414609A0FFF7DEFA2846BDE803
:100CB000F08100000C0000200D0AC9E8D6C3B5D8A9
:100CC000D6B7B3C9B9A6A3A1000000000D0A2573C9
:100CD000000000002DE9F041064600F0ACF800F0FD
:100CE00081F8012000F0A1F8032000F0ACF81D20ED
:100CF00000F0B3F82127384600F08EF84FF4FA6080
:100D0000FFF774FE044634B1657AE07AA17A00EB0D
:100D10000120308000E0FF253DB9E07AA27A00EBA7
:100D2000022107A0FFF7A0FA07E02846FFF726FDFB
:100D30008046414607A0FFF797FA2846BDE8F081B4
:100D40000D0AD3D0D0A7D6B8CEC6B8F6CAFD3D2579
:100D5000640000000D0A2573000000002DE9F04733
:100D600006460D4600F067F800F03CF8012000F060
:100D70005CF8052000F067F80E2000F06EF83046B1
:100D8000FFF778FE2846FFF775FE701900F114088A
:100D9000404600F041F84FF4FA60FFF727FE07469F
:100DA0000FB17C7A00E0FF241CB907A0FFF75CFAC2
:100DB00007E02046FFF7E2FC8146494607A0FFF71F
:100DC00053FA2046BDE8F0870D0AC9E8D6C3B2CE73
:100DD000CAFDB3C9B9A6A3A1000000000D0A25737E
:100DE0000000000010B50B490968080EFFF742FE2D
:100DF00008480068C0F30740FFF73CFE054800883C
:100E0000C0F30720FFF736FE02490878FFF732FEED
:100E100010BD00000C00002010B504462012FFF7A2
:100E200029FEE0B2FFF726FE10BD10B504462046AD
:100E3000FFF720FE10BD10B5EF20FFF71BFE0120CD
:100E4000FFF718FE10BD10B50446C4F30720FFF7E6
:100E500011FEE0B2FFF70EFE10BD10B504462046AD
:100E6000FFF708FE10BD000010B54FF08040008A6B
:100E700000F0010048B109490869804700204FF09F
:100E8000804188844FF47A7088854FF08040008AD2
:100E900020F001004FF08041088210BD4C0000207E
:100EA0000C48008800F0010068B10B48008840F44D
:100EB00000400949088007481038008820F00100E8
:100EC0000449103908800348008820F001000149D6
:100ED00008807047100800400A00002070B50546E1
:100EE0000C460D48C06940F001000B49C8618804F8
:100EF00085850485808940F0010089048881084641
:100F0000008840F00100088002231C2203210846CB
:100F1000FFF7BEFD70BD0000001002401D490988AA
:100F200001F0200111B31B49091D0988C8B21A49F3
:100F3000098801F40041C9B91749098801F48041C1
:100F400061B10A2803D00021134A118020E0124920
:100F5000098841F40041104A118019E00D2806D19A
:100F60000D49098841F480410B4A118010E00A497B
:100F70000988C1F30D01094A505407490988491CE1
:100F8000054A118011460988C72901DD0021118019
:100F90007047000000380140080000204001002098
:100FA0001749098801F0200111B31549091D098865
:100FB000C8B21449098801F40041C9B91149098826
:100FC000B1F5487F15DA00210F4A11800D490988D3
:100FD00039B90D492439098841F001010A4A243AF6
:100FE0001180084A11884A1C064B1A80074A50543F
:100FF00005E00449098841F40041024A1180704724
:10100000004400400A00002024080040080200209C
:1010100030380A2801D2012070470020704701466D
:1010200000BF704701460D4A12884A434FF0E02343
:101030005A6100229A6101221A6100BF4FF0E0223A
:10104000106900F001021AB100F48032002AF5D0D4
:1010500000224FF0E0231A619A61704702000020DD
:1010600000BF054A128802F04002002AF9D0C2B23D
:10107000014B1B1D1A80704700380140002070474B
:1010800030B595B0054613AB12AA09A9284600F061
:101090003BFA044614B1204615B030BD0020149030
:1010A00026E0224909689DF8502001EBC20113ABEC
:1010B00011AA486801A900F027FA04460CB120469D
:1010C000EAE709A901A800F0B7FC60B99DF844005F
:1010D0009DF84810884201DD0220DDE79DF85000B0
:1010E000124988750AE09DF85000401CC0B2149067
:1010F0000E48007D9DF850108842D2DC00BF0B489E
:10110000007D9DF85010884201D10420C4E714A945
:10111000284600F0D9FA04460CB12046BCE79DF8F9
:101120005000024948750020B6E700004C0000203E
:101130002DE9F0419AB000269C48847D007DA042B4
:1011400002DC1AB0BDE8F0819849096801EBC401DE
:1011500006AB07AA486808A900F0D6F908A994A028
:10116000FFF782F8002544E09048008B0121A94058
:101170000840D8B1222190A0FFF776F8284600F069
:1011800029FB8A492431471839468CA0FFF76CF8AF
:10119000222189A0FFF768F8284600F01BFB83494D
:1011A0002431084410A941F8250018E0284600F031
:1011B00011FB7E492431085810A941F825007B48CD
:1011C000C07D30B910A850F825107DA0FFF74CF86D
:1011D00005E010A850F825107AA0FFF745F89DF813
:1011E0001C00401EA84202D078A0FFF73DF8681C02
:1011F000C5B29DF81C008542B6DB75A0FFF734F838
:1012000000F038FB6948407D0B280DD2DFE800F084
:10121000060D151E27323F4E5F728700634909682D
:1012200051F834008047064690E0604A126852F850
:10123000341010988847064688E05C4B1B6853F8CA
:101240003420DDE91001904706467FE0574F3F68A4
:1012500057F8343010A807C89847064676E0DFF8FC
:101260004CC1DCF800C05CF8347010A80FC8B84757
:1012700006466BE01498DFF834C10090DCF800C03B
:101280005CF8347010A80FC8B84706465EE0DDE988
:101290001401DFF818C1CDE90001DCF800C05CF8EA
:1012A000347010A80FC8B84706464FE0DDE91412A5
:1012B0001698DFF8F8C0CDE900120290DCF800C003
:1012C0005CF8347010A80FC8B84706463EE0DDE968
:1012D0001423DDE91610DFF8D4C0CDE90023CDE9F1
:1012E0000210DCF800C05CF8347010A80FC8B847D2
:1012F00006462BE0DDE9163218991598CDE9023241
:10130000049101901498DFF8A4C00090DCF800C0AC
:101310005CF8347010A80FC8B847064616E0DDE93F
:101320001623DDE91810CDE90223CDE90410DDE92B
:101330001401DFF878C0CDE90001DCF800C05CF8EA
:10134000347010A80FC8B847064600BF00BF00F0B1
:1013500051FA9DF8180001280CD11448C07D20B91D
:1013600031461CA0FEF780FF07E031461BA0FEF7C8
:101370007BFF02E018A0FEF777FF0C4890F8EC0026
:1013800088B10A48D0F8F0000A21B0FBF1F201FB65
:1013900012070648D0F8F000B0FBF1F83A46414693
:1013A00011A0FEF761FF00BFCBE600004C0000205B
:1013B0000D0A257328000000256300002573000036
:1013C000256C750030582558000000002C000000E6
:1013D000290000003D256C753B0D0A003D30582565
:1013E000583B0D0A0000000046756E6374696F6E0D
:1013F0002052756E2054696D653A25642E2531643E
:101400006D730D0A00000000F0B50346154600207C
:1014100000220026002455E01F782C2F01D104B9AA
:1014200001221F78292F01D01F780FB904B94AE093
:10143000002E34D11F78302F02DB1F78392F11DDB9
:101440001F78612F02DB1F78662F0BDD1F78412F7D
:1014500002DB1F78462F05DD1F78582F02D01F783A
:10146000782F0CD102B12EE01F78612F03DB1F789B
:10147000203F0F7001E01F780F70491C1FE01F789C
:10148000222F04D102B11EE00126012417E01F78AB
:10149000202F14D01F782C2F11D0FF2613E01F7897
:1014A000222F00D1002402B10DE044B11F785C2F3F
:1014B00002D15B1C471CF8B21F780F70491C471CF7
:1014C000F8B25B1CA8E700BF00270F702E70F0BDBC
:1014D00010B50446002010700BE020780870641CE2
:1014E000491C1078401C10701078984201DB0120D4
:1014F00010BD2078202802D020780028EDD10020CF
:10150000087000BFF4E700002DE9FF4F85B080466A
:1015100089460027002004900390012002904FF09C
:10152000000B002544461DE02078202816D005F049
:101530007F00052812DA0DB945F0800505F07F001F
:10154000042803D120782A2800D00EE0207805F066
:101550007F010DF80100681CC5B202E0852D00D1A5
:1015600003E0641C20780028DED100BF8DB100208C
:1015700005F07F010DF8010051A1684600F05CFA0A
:1015800018B900210898017002E001210898017043
:1015900000254FF0000A444614E0641C0AF10100E3
:1015A00000F0FF0A2078202802D020782A2809D1CC
:1015B000204600F0D1F90646282E03D02A2E01D06D
:1015C000CDF810A02078282802D020780028E4D177
:1015D0004446049810B10498401C04444FF0000A9B
:1015E000002654E0207810B94FF0010A50E020782E
:1015F000282803D116B9781CC7B213E0207829280F
:1016000008D13EB917B1781EC7B201E04FF0010A08
:1016100047B93DE02078222804D10EB9012000E02E
:101620000020064647B9207820282FD0207889F856
:10163000000009F1010929E020782C2804D10120BB
:101640000290681CC5B214E02078202811D02078C0
:1016500028280ED04DB9BBF1050F06DA20780DF819
:101660000B000BF1010000F0FF0B0298401CC0B210
:101670000290012F0AD10298022807D10298401C3B
:10168000C0B202900398401CC0B20390641CA9E74A
:1016900000BF0398012809D100200DF80B0008A114
:1016A000684600F0C9F908B900200390079903982B
:1016B0000870002089F80000504609B0BDE8F08F9E
:1016C000766F6964000000002DE9F043B5B005466F
:1016D0000F460024002604E000213D488155701C7F
:1016E000C6B20A2EF8DB06E06D1C287818B9012076
:1016F00035B0BDE8F08328782828F5D16D1C61E06D
:1017000034AA69462846FFF77FFE064635449DF811
:10171000D00020B1012827D0FF284CD149E09DF806
:10172000000000B333A9684600F021F906460EB167
:101730000220DDE7204600F04DF825490A31339AB2
:101740000A50A1F12400008B0121A14088432049C7
:101750001A39088304211E480155601CC4B20A2CA2
:1017600001DD0320C4E726E0684600F081F9401C53
:1017700000F0FF08204600F02DF815490A3100EB73
:1017800001094946684600F068F911481A38018B8A
:101790000120A040014388B20D491A3908830C4842
:1017A00000F80480601CC4B20A2C01DD03209FE70E
:1017B00001E002209CE700BF2878292801D0287882
:1017C00000B900E09CE700BF3C70002090E70000FB
:1017D0006600002002460020002105E0044B5B5C0F
:1017E0000344D8B24B1CD9B29142F7DB70470000DA
:1017F000660000204FF08040008A00F0010040B1F8
:101800000B48D0F8F0004FF6FF7108440849C1F8C2
:10181000F0000748D0F8F0004FF08041898C084470
:101820000349C1F8F0000846D0F8F0007047000006
:101830004C00002010B5044604EBC40000EB04107B
:101840000122C2EB800081B24FF47A70FFF746FBB1
:1018500001200149C87510BD4C00002010B502469A
:10186000012000E050430B00A1F10104E1B2F9D1E5
:1018700010BD00004FF08040008A20F001004FF0C2
:10188000804108824FF6FF708885002088840249D5
:10189000C1F8F000704700004C00002070B51D48F2
:1018A000008800F40040002833D01A480578002052
:1018B00019494855194881681748884704461CB992
:1018C0001649C868804721E0134800F0DDF8054656
:1018D000012D00D02C46CCB1012C06D0022C08D012
:1018E000032C0AD0042C10D10BE00DA0FEF7BCFC99
:1018F0000BE00EA0FEF7B8FC07E00FA0FEF7B4FC6B
:1019000003E010A0FEF7B0FC00BF00BF00200149BB
:10191000088070BD08000020400100204C0000201D
:10192000BAAFCAFDB4EDCEF3210D0A00B2CECAFDA6
:10193000B4EDCEF3210D0A00B2CECAFDCCABB6E0B9
:10194000210D0A00CEB4D5D2B5BDC6A5C5E4B5C437
:10195000BAAFCAFD210D0A000146491C00E0491C2E
:101960000878202801D10029F9D1087870472DE99D
:10197000F04307460E4600254FF00A083C4600207B
:1019800030601FE02078392802DC207830280ADA1D
:101990002078462802DC2078412804DA207858286C
:1019A00009D1012D07D12078412801DB4FF0100823
:1019B000681CC5B205E0207800B904E00120BDE84C
:1019C000F083641CDEE700BF3C46B8F1100F0FD176
:1019D000032D01DA0220F2E72078302806D1607862
:1019E000582803D1A41CA81EC5B204E00320E6E7D2
:1019F0000DB90420E3E71BE00DB1681EC5B22078E5
:101A0000392806DC2078302803DB2078A0F1300963
:101A100002E02078A0F1370929464046FFF71EFF73
:101A2000316809FB00103060641C207800B900E0C8
:101A3000E2E700BF0020C2E702460AE010780B7818
:101A4000984201D001207047107800B902E0521C82
:101A5000491CF3E700BF0020F5E706E002780A70B2
:101A6000027802B902E0401C491CF7E700BF70474A
:101A70000146002005E00A7802B903E0421CD0B21A
:101A8000491CF8E700BF704710B58CB004461E2310
:101A90000BAA03A92046FFF71BFD0090009810B188
:101AA00001200CB010BD9DF82C00044400200B90C8
:101AB0000EE040489DF82C2050F8221003A8FFF7B4
:101AC000BBFF00B908E09DF82C00401CC0B20B9091
:101AD0009DF82C000728ECD300BF9DF82C000728A8
:101AE00063D2DFE800F004053C5E6564630000BF7C
:101AF00031A0FEF7B9FB31A0FEF7B6FB3FA0FEF721
:101B0000B3FB4EA0FEF7B0FB5CA0FEF7ADFB6BA0F5
:101B1000FEF7AAFB79A0FEF7A7FB86A0FEF7A4FBC1
:101B20008BA0FEF7A1FB90A0FEF79EFB94A0FEF712
:101B30009BFB99A0FEF798FB9EA0FEF795FBA4A047
:101B4000FEF792FBB0A0FEF78FFBBDA0FEF78CFB6B
:101B5000C8A0FEF789FBD4A0FEF786FB9AE216A088
:101B6000FEF782FBE0A0FEF77FFB00200B900EE06B
:101B7000ED4800689DF82C2000EBC2004168EBA006
:101B8000FEF772FB9DF82C00401CC0B20B90E6489B
:101B9000007D9DF82C108842EADC07A0FEF764FB6C
:101BA00078E205A0FEF760FBC4E171E245E219E2CC
:101BB000ECE10000100000200D0A00002D2D2D2D5D
:101BC0002D2D2D2D2D2D2D2D2D2D2D2D2D2D2D2D45
:101BD0002D2D2D2D55534D4152542056332E312D40
:101BE0002D2D2D2D2D2D2D2D2D2D2D2D2D2D2D2D25
:101BF0002D2D2D2D2D2D2D200D0A000020202020F3
:101C000055534D415254CAC7D3C9414C49454E540E
:101C1000454BBFAAB7A2B5C4D2BBB8F6C1E9C7C984
:101C2000B5C4B4AEBFDAB5F7CAD4BBA5BDBBD7E95E
:101C3000BCFE2CCDA8B9FD200D0A0000CBFC2CC4A5
:101C4000E3BFC9D2D4CDA8B9FDB4AEBFDAD6FACAC3
:101C5000D6B5F7D3C3B3CCD0F2C0EFC3E6B5C4C892
:101C6000CEBACEBAAFCAFD2CB2A2D6B4D0D02ED244
:101C7000F2B4CB2CC4E3BFC90D0A0000D2D4CBE62A
:101C8000D2E2B8FCB8C4BAAFCAFDB5C4CAE4C8EB66
:101C9000B2CECAFD28D6A7B3D6CAFDD7D6283130D2
:101CA0002F3136BDF8D6C629A1A2D7D6B7FBB4AE20
:101CB000A1A2BAAFCAFDC8EB0D0A0000BFDAB5D8C1
:101CC000D6B7B5C8D7F7CEAAB2CECAFD292CB5A5CE
:101CD000B8F6BAAFCAFDD7EEB6E0D6A7B3D6313064
:101CE000B8F6CAE4C8EBB2CECAFD2CB2A2D6A7B3EE
:101CF000D6BAAFCAFDB7B5200D0A0000BBD8D6B51D
:101D0000CFD4CABE2ED0C2D4F6B2CECAFDCFD4CA6A
:101D1000BEBDF8D6C6C9E8D6C3B9A6C4DC2CD0C2AD
:101D2000D4F6BDF8D6C6D7AABBBBB9A6C4DC2E0D67
:101D30000A000000BCBCCAF5D6A7B3D63A777777BD
:101D40002E6F70656E6564762E636F6D0D0A0000F0
:101D500055534D415254D3D037B8F6CFB5CDB3C358
:101D6000FCC1EE3A0D0A00003F3A2020202020203E
:101D7000BBF1C8A1B0EFD6FAD0C5CFA20D0A0000C2
:101D800068656C703A202020BBF1C8A1B0EFD6FA8C
:101D9000D0C5CFA20D0A00006C6973743A202020D0
:101DA000BFC9D3C3B5C4BAAFCAFDC1D0B1ED0D0A26
:101DB0000A00000069643A2020202020BFC9D3C354
:101DC000BAAFCAFDB5C44944C1D0B1ED0D0A0A008D
:101DD0006865783A20202020B2CECAFD3136BDF8A1
:101DE000D6C6CFD4CABE2CBAF3B8FABFD5B8F12B39
:101DF000CAFDD7D6BCB4D6B4D0D0BDF8D6C6D7AA03
:101E0000BBBB0D0A0A0000006465633A2020202055
:101E1000B2CECAFD3130BDF8D6C6CFD4CABE2CBAB8
:101E2000F3B8FABFD5B8F12BCAFDD7D6BCB4D6B437
:101E3000D0D0BDF8D6C6D7AABBBB0D0A0A00000099
:101E400072756E74696D653A312CBFAAC6F4BAAF6B
:101E5000CAFDD4CBD0D0BCC6CAB13B302CB9D8B1A6
:101E6000D5BAAFCAFDD4CBD0D0BCC6CAB13B0D0ADF
:101E70000A000000C7EBB0B4D5D5B3CCD0F2B1E0C6
:101E8000D0B4B8F1CABDCAE4C8EBBAAFCAFDC3FB4F
:101E9000BCB0B2CECAFDB2A2D2D4BBD8B3B5BCFCE2
:101EA000BDE1CAF82E0D0A002D2D2D2D2D2D2D2D25
:101EB0002D2D2D2D2D2D2D2D2D2D2D2D2D2D2D2D52
:101EC0002D2D414C49454E54454B2D2D2D2D2D2D5D
:101ED0002D2D2D2D2D2D2D2D2D2D2D2D2D2D2D2D32
:101EE0002D2D2D200D0A00002D2D2D2D2D2D2D2DCC
:101EF0002D2D2D2D2D2D2D2D2D2D2D2D2D2D2D2D12
:101F00002DBAAFCAFDC7E5B5A52D2D2D2D2D2D2D33
:101F10002D2D2D2D2D2D2D2D2D2D2D2D2D2D2D2DF1
:101F20002D2D2D2D200D0A004C00002025730D0AAB
:101F30000000000059A0FEF797F900200B901AE06E
:101F4000664909689DF82C2001EBC20101AB02AA89
:101F5000486803A9FFF7D8FA604800689DF82C107C
:101F600050F8312003A95EA0FEF77EF99DF82C0001
:101F7000401CC0B20B905948007D9DF82C1088423F
:101F8000DEDCAFF2CC30FEF76FF983E0AFF2D83091
:101F9000FEF76AF90BAA03A92046FFF735FA9DF868
:101FA0002C00C8B9694603A8FFF7E1FC0B909DF827
:101FB0002C0020B94FA00099FEF756F90EE09DF8CD
:101FC0002C00042801D002206BE54DA0FEF74CF94F
:101FD00001204249C87501E0022062E547A0FEF7F2
:101FE00043F957E045A0FEF73FF90BAA03A92046A5
:101FF000FFF70AFA9DF82C00C8B9694603A8FFF755
:10200000B6FC0B909DF82C0020B942A00099FEF779
:102010002BF90EE09DF82C00042801D0022040E5A9
:102020003FA0FEF721F900202C49C87501E00220ED
:1020300037E532A0FEF718F92CE030A0FEF714F9CE
:102040000BAA03A92046FFF7DFF99DF82C00C8B9B9
:10205000694603A8FFF78BFC0B909DF82C0078B91C
:102060001E49009881F8EC00084690F8EC0018B181
:1020700030A0FEF7F9F807E035A0FEF7F5F803E029
:1020800002200EE502200CE51CA0FEF7EDF801E0B1
:10209000012006E500BF002003E500002D2D2D2DB9
:1020A0002D2D2D2D2D2D2D2D2D2D2D2D2D2D2D2D60
:1020B0002D2D2D2D2DBAAFCAFD204944202D2D2DBB
:1020C0002D2D2D2D2D2D2D2D2D2D2D2D2D2D2D2D40
:1020D0002D2D2D2D2D2D2D2D200D0A004C000020F5
:1020E00025732069642069733A0D0A305825303809
:1020F000580D0A004845583A305825580D0A000036
:102100003136BDF8D6C6B2CECAFDCFD4CABE210D77
:102110000A0000004445433A256C750D0A00000092
:102120003130BDF8D6C6B2CECAFDCFD4CABE210D5D
:102130000A00000052756E2054696D652043616C81
:1021400063756C6174696F6E204F4E0D0A0000005C
:1021500052756E2054696D652043616C63756C61C6
:1021600074696F6E204F46460D0A000030313233DD
:1021700034353637383941424344454640305800BB
:1021800030313233343536373839616263646566ED
:102190004030780004000008000000000000000249
:1021A00000010000100000003F00000064656300B3
:1021B0006964000072756E74696D650068656C70A5
:1021C000000000006C69737400000000686578000E
:1021D00075696E74385F742050535F536574416441
:1021E00064722875696E7433325F7420616464723E
:1021F000293B20202F2FC9E8D6C3C4A3BFE9B5D8F7
:10220000D6B7000075696E74385F742050535F57FD
:10221000726974655265672875696E74385F7420D9
:102220005265674E756D2C75696E74385F74204405
:10223000415441293B2F2FD0B4CFB5CDB3BCC4B44A
:10224000E6C6F70075696E74385F742050535F52AC
:102250006561645379735061726128537973506179
:102260007261202A70293B202F2FB6C1CFB5CDB384
:10227000BBF9B1BEB2CECAFD0000000075696E7434
:10228000385F742050535F56616C696454656D709B
:102290006C6574654E756D2875696E7431365F7442
:1022A000202A56616C69644E293B2F2FB6C1D3D0CA
:1022B000D0A7C4A3B0E5B8F6CAFD0000DC22000830
:1022C00000000020400100006C01000828230008E5
:1022D00040010020680D0000C8010008C11AFF017C
:1022E00013A8211B08BC041AC4041AB0041ACC0495
:1022F0001AAC041AB404135D0D1408042214083136
:102300000B1B08440813210C1B08D0181AD5081AF7
:102310007C10222C142035181C0881102412111B4B
:08232000089D0C220402DC01FF
:0400000508000131BD
:00000001FF
